:100000000C942A000C946F000C9485000C9447000B
:100010000C9447000C9447000C9447000C945C002F
:100020000C9447000C9447000C9447000C94470034
:100030000C9447000C9447000C9447000C94470024
:100040000C9447000C9447000C9447000C94470014
:100050000C94470011241FBECFE5D8E0DEBFCDBF12
:1000600010E0A0E6B0E0EAE1F4E002C005900D92F5
:10007000A037B107D9F720E0A0E7B0E001C01D929A
:10008000AD38B207E1F70E94DA000C940B020C9431
:10009000000080EC8BBF8AE085BF08958EB5886034
:1000A0008EBD89B7806189BF8EB585608EBD8AECB3
:1000B00093E09BBD8ABD08951F920F920FB60F92D9
:1000C00011248F93809177008F5F809377008091C8
:1000D00077008F910F900FBE0F901F9018951F9271
:1000E0000F920FB60F9211248F93809164008111AB
:1000F00004C081E08093640002C0109264008F917C
:100100000F900FBE0F901F9018951F920F920FB671
:100110000F9211248F931092770081E080936400F6
:100120008F910F900FBE0F901F901895FF920F9315
:100130001F93CF93DF9382E890E00E94F601F82EA0
:1001400080937100C0E0D0E00CC08E010F5F1F4FA4
:10015000C8018E579F4F0E94F601C858DF4F888311
:10016000E8018F2D90E0C817D9077CF3DF91CF917C
:100170001F910F91FF900895CF93DF9360917100CD
:1001800082E890E00E94FE01C0E0D0E00AC0FE01DB
:10019000E858FF4F60812196CE018E579F4F0E94F5
:1001A000FE018091710090E0C817D90784F3DF91B8
:1001B000CF9108950E944E000E9449008FEF8ABBA4
:1001C00084BB8FE082BB7894109277001092640019
:1001D000B12CE12CF12C809917C080916400811121
:1001E00013C080917100E82FF0E090917700E858FB
:1001F000FF4F90838F5F809371008B3010F01092CF
:1002000071000E94BC0031C081991CC080916400C3
:100210008130C1F40E94960080917000E82FF0E0D8
:10022000E858FF4F9081909377008F5F8093700024
:1002300090917100981710F410927000C09177009F
:10024000EC2E13C080916400813061F4819B0CC05E
:10025000B11005C0C0917700EC2EBB24B394E0929E
:10026000770003C0B12C01C0B12C8091770099E8D0
:10027000899F912D11249295969597702CE3929FCA
:10028000801911242DEC829F212D1124269526956D
:100290002695220F922F990F990F290F821B282F35
:1002A00080917700C22ED12C90E08C199D09CCE36F
:1002B000D0E0BE010E94CE010AE010E0B8010E9429
:1002C000CE01FB0180917700AB015527BA01660F83
:1002D000771F440F551F440F551F440F551F460FDE
:1002E000571F4C0D5D1D90E0841B950BBE010E94B5
:1002F000CE01CB01B8010E94CE01382F809177004A
:1003000090E068E572E00E94CE0120937500E093D2
:100310007400309373006093720015BAE091760018
:10032000F0E0E05AFF4F80818BBB809176008330F4
:1003300049F4E0917200F0E0EB59FF4F8081809525
:1003400085BB21C0823051F4E0917300F0E0EB599D
:10035000FF4F80818095806885BB15C0813049F44E
:10036000E0917400F0E0EB59FF4F8081809585BBF0
:100370000AC0811108C0E0917500F0E0EB59FF4F11
:100380008081809585BB809176008F5F8093760019
:10039000843008F420CF109276001DCF97FB072EF3
:1003A00016F4009407D077FD09D00E94E20107FC03
:1003B00005D03EF4909581959F4F08957095619575
:1003C0007F4F0895AA1BBB1B51E107C0AA1FBB1F8B
:1003D000A617B70710F0A61BB70B881F991F5A95D1
:1003E000A9F780959095BC01CD010895E199FECFC4
:1003F0009FBB8EBBE09A99278DB30895262FE19974
:10040000FECF9FBB8EBB2DBB0FB6F894E29AE19A4C
:0A0410000FBE01960895F894FFCF87
:10041A000102040801C0F9A4B0999282F880900000
:00000001FF
